{
  "_format": "hh-sol-artifact-1",
  "contractName": "PartyRegistry",
  "sourceName": "contracts/PartyRegistery.sol",
  "abi": [
    {
      "inputs": [],
      "stateMutability": "nonpayable",
      "type": "constructor"
    },
    {
      "anonymous": false,
      "inputs": [
        {
          "indexed": true,
          "internalType": "uint256",
          "name": "partyId",
          "type": "uint256"
        },
        {
          "indexed": false,
          "internalType": "string",
          "name": "name",
          "type": "string"
        },
        {
          "indexed": false,
          "internalType": "enum PartyRegistry.PartyType",
          "name": "partyType",
          "type": "uint8"
        }
      ],
      "name": "PartyRegistered",
      "type": "event"
    },
    {
      "stateMutability": "payable",
      "type": "fallback"
    },
    {
      "inputs": [],
      "name": "getAllParties",
      "outputs": [
        {
          "components": [
            {
              "internalType": "uint256",
              "name": "id",
              "type": "uint256"
            },
            {
              "internalType": "string",
              "name": "name",
              "type": "string"
            },
            {
              "internalType": "string",
              "name": "abbreviation",
              "type": "string"
            },
            {
              "internalType": "string",
              "name": "slogan",
              "type": "string"
            },
            {
              "internalType": "string",
              "name": "registrationOn",
              "type": "string"
            },
            {
              "internalType": "string",
              "name": "description",
              "type": "string"
            },
            {
              "internalType": "enum PartyRegistry.PartyType",
              "name": "partyType",
              "type": "uint8"
            },
            {
              "internalType": "string",
              "name": "manifesto",
              "type": "string"
            },
            {
              "internalType": "string",
              "name": "partyFounder",
              "type": "string"
            },
            {
              "internalType": "string",
              "name": "logo",
              "type": "string"
            },
            {
              "internalType": "string",
              "name": "state",
              "type": "string"
            }
          ],
          "internalType": "struct PartyRegistry.Party[]",
          "name": "",
          "type": "tuple[]"
        }
      ],
      "stateMutability": "view",
      "type": "function"
    },
    {
      "inputs": [
        {
          "internalType": "enum PartyRegistry.PartyType",
          "name": "_type",
          "type": "uint8"
        }
      ],
      "name": "getAllPartiesByType",
      "outputs": [
        {
          "components": [
            {
              "internalType": "uint256",
              "name": "id",
              "type": "uint256"
            },
            {
              "internalType": "string",
              "name": "name",
              "type": "string"
            },
            {
              "internalType": "string",
              "name": "abbreviation",
              "type": "string"
            },
            {
              "internalType": "string",
              "name": "slogan",
              "type": "string"
            },
            {
              "internalType": "string",
              "name": "registrationOn",
              "type": "string"
            },
            {
              "internalType": "string",
              "name": "description",
              "type": "string"
            },
            {
              "internalType": "enum PartyRegistry.PartyType",
              "name": "partyType",
              "type": "uint8"
            },
            {
              "internalType": "string",
              "name": "manifesto",
              "type": "string"
            },
            {
              "internalType": "string",
              "name": "partyFounder",
              "type": "string"
            },
            {
              "internalType": "string",
              "name": "logo",
              "type": "string"
            },
            {
              "internalType": "string",
              "name": "state",
              "type": "string"
            }
          ],
          "internalType": "struct PartyRegistry.Party[]",
          "name": "",
          "type": "tuple[]"
        }
      ],
      "stateMutability": "view",
      "type": "function"
    },
    {
      "inputs": [
        {
          "internalType": "uint256",
          "name": "_partyId",
          "type": "uint256"
        }
      ],
      "name": "getPartyById",
      "outputs": [
        {
          "components": [
            {
              "internalType": "uint256",
              "name": "id",
              "type": "uint256"
            },
            {
              "internalType": "string",
              "name": "name",
              "type": "string"
            },
            {
              "internalType": "string",
              "name": "abbreviation",
              "type": "string"
            },
            {
              "internalType": "string",
              "name": "slogan",
              "type": "string"
            },
            {
              "internalType": "string",
              "name": "registrationOn",
              "type": "string"
            },
            {
              "internalType": "string",
              "name": "description",
              "type": "string"
            },
            {
              "internalType": "enum PartyRegistry.PartyType",
              "name": "partyType",
              "type": "uint8"
            },
            {
              "internalType": "string",
              "name": "manifesto",
              "type": "string"
            },
            {
              "internalType": "string",
              "name": "partyFounder",
              "type": "string"
            },
            {
              "internalType": "string",
              "name": "logo",
              "type": "string"
            },
            {
              "internalType": "string",
              "name": "state",
              "type": "string"
            }
          ],
          "internalType": "struct PartyRegistry.Party",
          "name": "",
          "type": "tuple"
        }
      ],
      "stateMutability": "view",
      "type": "function"
    },
    {
      "inputs": [
        {
          "internalType": "string",
          "name": "_name",
          "type": "string"
        }
      ],
      "name": "getPartyByName",
      "outputs": [
        {
          "components": [
            {
              "internalType": "uint256",
              "name": "id",
              "type": "uint256"
            },
            {
              "internalType": "string",
              "name": "name",
              "type": "string"
            },
            {
              "internalType": "string",
              "name": "abbreviation",
              "type": "string"
            },
            {
              "internalType": "string",
              "name": "slogan",
              "type": "string"
            },
            {
              "internalType": "string",
              "name": "registrationOn",
              "type": "string"
            },
            {
              "internalType": "string",
              "name": "description",
              "type": "string"
            },
            {
              "internalType": "enum PartyRegistry.PartyType",
              "name": "partyType",
              "type": "uint8"
            },
            {
              "internalType": "string",
              "name": "manifesto",
              "type": "string"
            },
            {
              "internalType": "string",
              "name": "partyFounder",
              "type": "string"
            },
            {
              "internalType": "string",
              "name": "logo",
              "type": "string"
            },
            {
              "internalType": "string",
              "name": "state",
              "type": "string"
            }
          ],
          "internalType": "struct PartyRegistry.Party",
          "name": "",
          "type": "tuple"
        }
      ],
      "stateMutability": "view",
      "type": "function"
    },
    {
      "inputs": [
        {
          "internalType": "string",
          "name": "_state",
          "type": "string"
        }
      ],
      "name": "getPartyByState",
      "outputs": [
        {
          "components": [
            {
              "internalType": "uint256",
              "name": "id",
              "type": "uint256"
            },
            {
              "internalType": "string",
              "name": "name",
              "type": "string"
            },
            {
              "internalType": "string",
              "name": "abbreviation",
              "type": "string"
            },
            {
              "internalType": "string",
              "name": "slogan",
              "type": "string"
            },
            {
              "internalType": "string",
              "name": "registrationOn",
              "type": "string"
            },
            {
              "internalType": "string",
              "name": "description",
              "type": "string"
            },
            {
              "internalType": "enum PartyRegistry.PartyType",
              "name": "partyType",
              "type": "uint8"
            },
            {
              "internalType": "string",
              "name": "manifesto",
              "type": "string"
            },
            {
              "internalType": "string",
              "name": "partyFounder",
              "type": "string"
            },
            {
              "internalType": "string",
              "name": "logo",
              "type": "string"
            },
            {
              "internalType": "string",
              "name": "state",
              "type": "string"
            }
          ],
          "internalType": "struct PartyRegistry.Party[]",
          "name": "",
          "type": "tuple[]"
        }
      ],
      "stateMutability": "view",
      "type": "function"
    },
    {
      "inputs": [],
      "name": "nextPartyId",
      "outputs": [
        {
          "internalType": "uint256",
          "name": "",
          "type": "uint256"
        }
      ],
      "stateMutability": "view",
      "type": "function"
    },
    {
      "inputs": [],
      "name": "owner",
      "outputs": [
        {
          "internalType": "address",
          "name": "",
          "type": "address"
        }
      ],
      "stateMutability": "view",
      "type": "function"
    },
    {
      "inputs": [
        {
          "internalType": "uint256",
          "name": "",
          "type": "uint256"
        }
      ],
      "name": "parties",
      "outputs": [
        {
          "internalType": "uint256",
          "name": "id",
          "type": "uint256"
        },
        {
          "internalType": "string",
          "name": "name",
          "type": "string"
        },
        {
          "internalType": "string",
          "name": "abbreviation",
          "type": "string"
        },
        {
          "internalType": "string",
          "name": "slogan",
          "type": "string"
        },
        {
          "internalType": "string",
          "name": "registrationOn",
          "type": "string"
        },
        {
          "internalType": "string",
          "name": "description",
          "type": "string"
        },
        {
          "internalType": "enum PartyRegistry.PartyType",
          "name": "partyType",
          "type": "uint8"
        },
        {
          "internalType": "string",
          "name": "manifesto",
          "type": "string"
        },
        {
          "internalType": "string",
          "name": "partyFounder",
          "type": "string"
        },
        {
          "internalType": "string",
          "name": "logo",
          "type": "string"
        },
        {
          "internalType": "string",
          "name": "state",
          "type": "string"
        }
      ],
      "stateMutability": "view",
      "type": "function"
    },
    {
      "inputs": [
        {
          "internalType": "uint256",
          "name": "",
          "type": "uint256"
        }
      ],
      "name": "partyIds",
      "outputs": [
        {
          "internalType": "uint256",
          "name": "",
          "type": "uint256"
        }
      ],
      "stateMutability": "view",
      "type": "function"
    },
    {
      "inputs": [
        {
          "internalType": "uint256",
          "name": "_id",
          "type": "uint256"
        },
        {
          "internalType": "string",
          "name": "_name",
          "type": "string"
        },
        {
          "internalType": "string",
          "name": "_abbreviation",
          "type": "string"
        },
        {
          "internalType": "string",
          "name": "_slogan",
          "type": "string"
        },
        {
          "internalType": "string",
          "name": "_registrationOn",
          "type": "string"
        },
        {
          "internalType": "string",
          "name": "_description",
          "type": "string"
        },
        {
          "internalType": "enum PartyRegistry.PartyType",
          "name": "_partyType",
          "type": "uint8"
        },
        {
          "internalType": "string",
          "name": "_manifesto",
          "type": "string"
        },
        {
          "internalType": "string",
          "name": "_partyfounder",
          "type": "string"
        },
        {
          "internalType": "string",
          "name": "_logo",
          "type": "string"
        },
        {
          "internalType": "string",
          "name": "_state",
          "type": "string"
        }
      ],
      "name": "registerParty",
      "outputs": [],
      "stateMutability": "nonpayable",
      "type": "function"
    },
    {
      "stateMutability": "payable",
      "type": "receive"
    }
  ],
  "bytecode": "0x608060405260018055348015601357600080fd5b50336000806101000a81548173ffffffffffffffffffffffffffffffffffffffff021916908373ffffffffffffffffffffffffffffffffffffffff16021790555061493a806100636000396000f3fe6080604052600436106100955760003560e01c80638da5cb5b116100595780638da5cb5b14610237578063b30b417114610262578063b867bfcc1461029f578063cbbaddf4146102ca578063f65a1d34146102f5576100d5565b806317669b5614610110578063386746671461014d57806338d8e79a146101765780634f6c90cf146101b357806370651a18146101f0576100d5565b366100d5576040517f08c379a00000000000000000000000000000000000000000000000000000000081526004016100cc906136dd565b60405180910390fd5b6040517f08c379a000000000000000000000000000000000000000000000000000000000815260040161010790613749565b60405180910390fd5b34801561011c57600080fd5b50610137600480360381019061013291906137b3565b610332565b6040516101449190613a1d565b60405180910390f35b34801561015957600080fd5b50610174600480360381019061016f9190613b99565b6109a9565b005b34801561018257600080fd5b5061019d60048036038101906101989190613d89565b610da5565b6040516101aa9190613f9f565b60405180910390f35b3480156101bf57600080fd5b506101da60048036038101906101d591906137b3565b611578565b6040516101e79190613fd0565b60405180910390f35b3480156101fc57600080fd5b50610217600480360381019061021291906137b3565b61159c565b60405161022e9b9a99989796959493929190614033565b60405180910390f35b34801561024357600080fd5b5061024c611acb565b604051610259919061415e565b60405180910390f35b34801561026e57600080fd5b5061028960048036038101906102849190614179565b611aef565b6040516102969190613a1d565b60405180910390f35b3480156102ab57600080fd5b506102b46121d2565b6040516102c19190613f9f565b60405180910390f35b3480156102d657600080fd5b506102df6128b0565b6040516102ec9190613fd0565b60405180910390f35b34801561030157600080fd5b5061031c60048036038101906103179190614179565b6128b6565b6040516103299190613f9f565b60405180910390f35b61033a613614565b60008211801561034b575060015482105b61038a576040517f08c379a00000000000000000000000000000000000000000000000000000000081526004016103819061420e565b60405180910390fd5b60006002600084815260200190815260200160002060405180610160016040529081600082015481526020016001820180546103c59061425d565b80601f01602080910402602001604051908101604052809291908181526020018280546103f19061425d565b801561043e5780601f106104135761010080835404028352916020019161043e565b820191906000526020600020905b81548152906001019060200180831161042157829003601f168201915b505050505081526020016002820180546104579061425d565b80601f01602080910402602001604051908101604052809291908181526020018280546104839061425d565b80156104d05780601f106104a5576101008083540402835291602001916104d0565b820191906000526020600020905b8154815290600101906020018083116104b357829003601f168201915b505050505081526020016003820180546104e99061425d565b80601f01602080910402602001604051908101604052809291908181526020018280546105159061425d565b80156105625780601f1061053757610100808354040283529160200191610562565b820191906000526020600020905b81548152906001019060200180831161054557829003601f168201915b5050505050815260200160048201805461057b9061425d565b80601f01602080910402602001604051908101604052809291908181526020018280546105a79061425d565b80156105f45780601f106105c9576101008083540402835291602001916105f4565b820191906000526020600020905b8154815290600101906020018083116105d757829003601f168201915b5050505050815260200160058201805461060d9061425d565b80601f01602080910402602001604051908101604052809291908181526020018280546106399061425d565b80156106865780601f1061065b57610100808354040283529160200191610686565b820191906000526020600020905b81548152906001019060200180831161066957829003601f168201915b505050505081526020016006820160009054906101000a900460ff1660018111156106b4576106b361387f565b5b60018111156106c6576106c561387f565b5b81526020016007820180546106da9061425d565b80601f01602080910402602001604051908101604052809291908181526020018280546107069061425d565b80156107535780601f1061072857610100808354040283529160200191610753565b820191906000526020600020905b81548152906001019060200180831161073657829003601f168201915b5050505050815260200160088201805461076c9061425d565b80601f01602080910402602001604051908101604052809291908181526020018280546107989061425d565b80156107e55780601f106107ba576101008083540402835291602001916107e5565b820191906000526020600020905b8154815290600101906020018083116107c857829003601f168201915b505050505081526020016009820180546107fe9061425d565b80601f016020809104026020016040519081016040528092919081815260200182805461082a9061425d565b80156108775780601f1061084c57610100808354040283529160200191610877565b820191906000526020600020905b81548152906001019060200180831161085a57829003601f168201915b50505050508152602001600a820180546108909061425d565b80601f01602080910402602001604051908101604052809291908181526020018280546108bc9061425d565b80156109095780601f106108de57610100808354040283529160200191610909565b820191906000526020600020905b8154815290600101906020018083116108ec57829003601f168201915b505050505081525050905060405180610160016040528082600001518152602001826020015181526020018260400151815260200182606001518152602001826080015181526020018260a0015181526020018260c0015160018111156109735761097261387f565b5b81526020018260e00151815260200182610100015181526020018261012001518152602001826101400151815250915050919050565b60008054906101000a900473ffffffffffffffffffffffffffffffffffffffff1673ffffffffffffffffffffffffffffffffffffffff163373ffffffffffffffffffffffffffffffffffffffff1614610a37576040517f08c379a0000000000000000000000000000000000000000000000000000000008152600401610a2e906142da565b60405180910390fd5b60005b600380549050811015610ae55789805190602001206002600060038481548110610a6757610a666142fa565b5b90600052602060002001548152602001908152602001600020600201604051610a9091906143cc565b604051809103902003610ad8576040517f08c379a0000000000000000000000000000000000000000000000000000000008152600401610acf90614455565b60405180910390fd5b8080600101915050610a3a565b5060006001811115610afa57610af961387f565b5b856001811115610b0d57610b0c61387f565b5b03610b5b576000815114610b56576040517f08c379a0000000000000000000000000000000000000000000000000000000008152600401610b4d906144e7565b60405180910390fd5b610ba0565b6000815111610b9f576040517f08c379a0000000000000000000000000000000000000000000000000000000008152600401610b9690614553565b60405180910390fd5b5b6040518061016001604052808c81526020018b81526020018a8152602001898152602001888152602001878152602001866001811115610be357610be261387f565b5b815260200185815260200184815260200183815260200182815250600260006001548152602001908152602001600020600082015181600001556020820151816001019081610c32919061471f565b506040820151816002019081610c48919061471f565b506060820151816003019081610c5e919061471f565b506080820151816004019081610c74919061471f565b5060a0820151816005019081610c8a919061471f565b5060c08201518160060160006101000a81548160ff02191690836001811115610cb657610cb561387f565b5b021790555060e0820151816007019081610cd0919061471f565b50610100820151816008019081610ce7919061471f565b50610120820151816009019081610cfe919061471f565b5061014082015181600a019081610d15919061471f565b50905050600360015490806001815401808255809150506001900390600052602060002001600090919091909150556001547f4dd5e76fc25d947e9c911cc3f4ad233bde49d16eb59026dada6e49f4d9d6d7938b87604051610d789291906147f1565b60405180910390a260016000815480929190610d9390614850565b91905055505050505050505050505050565b60606000805b600380549050811015610e4057836001811115610dcb57610dca61387f565b5b6002600060038481548110610de357610de26142fa565b5b9060005260206000200154815260200190815260200160002060060160009054906101000a900460ff166001811115610e1f57610e1e61387f565b5b03610e33578180610e2f90614850565b9250505b8080600101915050610dab565b5060008167ffffffffffffffff811115610e5d57610e5c613a49565b5b604051908082528060200260200182016040528015610e9657816020015b610e83613614565b815260200190600190039081610e7b5790505b5090506000805b60038054905081101561156c57600060038281548110610ec057610ebf6142fa565b5b90600052602060002001549050866001811115610ee057610edf61387f565b5b6002600083815260200190815260200160002060060160009054906101000a900460ff166001811115610f1657610f1561387f565b5b0361155e576000600260008381526020019081526020016000206040518061016001604052908160008201548152602001600182018054610f569061425d565b80601f0160208091040260200160405190810160405280929190818152602001828054610f829061425d565b8015610fcf5780601f10610fa457610100808354040283529160200191610fcf565b820191906000526020600020905b815481529060010190602001808311610fb257829003601f168201915b50505050508152602001600282018054610fe89061425d565b80601f01602080910402602001604051908101604052809291908181526020018280546110149061425d565b80156110615780601f1061103657610100808354040283529160200191611061565b820191906000526020600020905b81548152906001019060200180831161104457829003601f168201915b5050505050815260200160038201805461107a9061425d565b80601f01602080910402602001604051908101604052809291908181526020018280546110a69061425d565b80156110f35780601f106110c8576101008083540402835291602001916110f3565b820191906000526020600020905b8154815290600101906020018083116110d657829003601f168201915b5050505050815260200160048201805461110c9061425d565b80601f01602080910402602001604051908101604052809291908181526020018280546111389061425d565b80156111855780601f1061115a57610100808354040283529160200191611185565b820191906000526020600020905b81548152906001019060200180831161116857829003601f168201915b5050505050815260200160058201805461119e9061425d565b80601f01602080910402602001604051908101604052809291908181526020018280546111ca9061425d565b80156112175780601f106111ec57610100808354040283529160200191611217565b820191906000526020600020905b8154815290600101906020018083116111fa57829003601f168201915b505050505081526020016006820160009054906101000a900460ff1660018111156112455761124461387f565b5b60018111156112575761125661387f565b5b815260200160078201805461126b9061425d565b80601f01602080910402602001604051908101604052809291908181526020018280546112979061425d565b80156112e45780601f106112b9576101008083540402835291602001916112e4565b820191906000526020600020905b8154815290600101906020018083116112c757829003601f168201915b505050505081526020016008820180546112fd9061425d565b80601f01602080910402602001604051908101604052809291908181526020018280546113299061425d565b80156113765780601f1061134b57610100808354040283529160200191611376565b820191906000526020600020905b81548152906001019060200180831161135957829003601f168201915b5050505050815260200160098201805461138f9061425d565b80601f01602080910402602001604051908101604052809291908181526020018280546113bb9061425d565b80156114085780601f106113dd57610100808354040283529160200191611408565b820191906000526020600020905b8154815290600101906020018083116113eb57829003601f168201915b50505050508152602001600a820180546114219061425d565b80601f016020809104026020016040519081016040528092919081815260200182805461144d9061425d565b801561149a5780601f1061146f5761010080835404028352916020019161149a565b820191906000526020600020905b81548152906001019060200180831161147d57829003601f168201915b505050505081525050905060405180610160016040528082600001518152602001826020015181526020018260400151815260200182606001518152602001826080015181526020018260a0015181526020018260c0015160018111156115045761150361387f565b5b81526020018260e0015181526020018261010001518152602001826101200151815260200182610140015181525085858061153e90614850565b965081518110611551576115506142fa565b5b6020026020010181905250505b508080600101915050610e9d565b50819350505050919050565b6003818154811061158857600080fd5b906000526020600020016000915090505481565b60026020528060005260406000206000915090508060000154908060010180546115c59061425d565b80601f01602080910402602001604051908101604052809291908181526020018280546115f19061425d565b801561163e5780601f106116135761010080835404028352916020019161163e565b820191906000526020600020905b81548152906001019060200180831161162157829003601f168201915b5050505050908060020180546116539061425d565b80601f016020809104026020016040519081016040528092919081815260200182805461167f9061425d565b80156116cc5780601f106116a1576101008083540402835291602001916116cc565b820191906000526020600020905b8154815290600101906020018083116116af57829003601f168201915b5050505050908060030180546116e19061425d565b80601f016020809104026020016040519081016040528092919081815260200182805461170d9061425d565b801561175a5780601f1061172f5761010080835404028352916020019161175a565b820191906000526020600020905b81548152906001019060200180831161173d57829003601f168201915b50505050509080600401805461176f9061425d565b80601f016020809104026020016040519081016040528092919081815260200182805461179b9061425d565b80156117e85780601f106117bd576101008083540402835291602001916117e8565b820191906000526020600020905b8154815290600101906020018083116117cb57829003601f168201915b5050505050908060050180546117fd9061425d565b80601f01602080910402602001604051908101604052809291908181526020018280546118299061425d565b80156118765780601f1061184b57610100808354040283529160200191611876565b820191906000526020600020905b81548152906001019060200180831161185957829003601f168201915b5050505050908060060160009054906101000a900460ff169080600701805461189e9061425d565b80601f01602080910402602001604051908101604052809291908181526020018280546118ca9061425d565b80156119175780601f106118ec57610100808354040283529160200191611917565b820191906000526020600020905b8154815290600101906020018083116118fa57829003601f168201915b50505050509080600801805461192c9061425d565b80601f01602080910402602001604051908101604052809291908181526020018280546119589061425d565b80156119a55780601f1061197a576101008083540402835291602001916119a5565b820191906000526020600020905b81548152906001019060200180831161198857829003601f168201915b5050505050908060090180546119ba9061425d565b80601f01602080910402602001604051908101604052809291908181526020018280546119e69061425d565b8015611a335780601f10611a0857610100808354040283529160200191611a33565b820191906000526020600020905b815481529060010190602001808311611a1657829003601f168201915b50505050509080600a018054611a489061425d565b80601f0160208091040260200160405190810160405280929190818152602001828054611a749061425d565b8015611ac15780601f10611a9657610100808354040283529160200191611ac1565b820191906000526020600020905b815481529060010190602001808311611aa457829003601f168201915b505050505090508b565b60008054906101000a900473ffffffffffffffffffffffffffffffffffffffff1681565b611af7613614565b60005b60038054905081101561219157600060038281548110611b1d57611b1c6142fa565b5b90600052602060002001549050838051906020012060026000838152602001908152602001600020600101604051611b5591906143cc565b604051809103902003612183576000600260008381526020019081526020016000206040518061016001604052908160008201548152602001600182018054611b9d9061425d565b80601f0160208091040260200160405190810160405280929190818152602001828054611bc99061425d565b8015611c165780601f10611beb57610100808354040283529160200191611c16565b820191906000526020600020905b815481529060010190602001808311611bf957829003601f168201915b50505050508152602001600282018054611c2f9061425d565b80601f0160208091040260200160405190810160405280929190818152602001828054611c5b9061425d565b8015611ca85780601f10611c7d57610100808354040283529160200191611ca8565b820191906000526020600020905b815481529060010190602001808311611c8b57829003601f168201915b50505050508152602001600382018054611cc19061425d565b80601f0160208091040260200160405190810160405280929190818152602001828054611ced9061425d565b8015611d3a5780601f10611d0f57610100808354040283529160200191611d3a565b820191906000526020600020905b815481529060010190602001808311611d1d57829003601f168201915b50505050508152602001600482018054611d539061425d565b80601f0160208091040260200160405190810160405280929190818152602001828054611d7f9061425d565b8015611dcc5780601f10611da157610100808354040283529160200191611dcc565b820191906000526020600020905b815481529060010190602001808311611daf57829003601f168201915b50505050508152602001600582018054611de59061425d565b80601f0160208091040260200160405190810160405280929190818152602001828054611e119061425d565b8015611e5e5780601f10611e3357610100808354040283529160200191611e5e565b820191906000526020600020905b815481529060010190602001808311611e4157829003601f168201915b505050505081526020016006820160009054906101000a900460ff166001811115611e8c57611e8b61387f565b5b6001811115611e9e57611e9d61387f565b5b8152602001600782018054611eb29061425d565b80601f0160208091040260200160405190810160405280929190818152602001828054611ede9061425d565b8015611f2b5780601f10611f0057610100808354040283529160200191611f2b565b820191906000526020600020905b815481529060010190602001808311611f0e57829003601f168201915b50505050508152602001600882018054611f449061425d565b80601f0160208091040260200160405190810160405280929190818152602001828054611f709061425d565b8015611fbd5780601f10611f9257610100808354040283529160200191611fbd565b820191906000526020600020905b815481529060010190602001808311611fa057829003601f168201915b50505050508152602001600982018054611fd69061425d565b80601f01602080910402602001604051908101604052809291908181526020018280546120029061425d565b801561204f5780601f106120245761010080835404028352916020019161204f565b820191906000526020600020905b81548152906001019060200180831161203257829003601f168201915b50505050508152602001600a820180546120689061425d565b80601f01602080910402602001604051908101604052809291908181526020018280546120949061425d565b80156120e15780601f106120b6576101008083540402835291602001916120e1565b820191906000526020600020905b8154815290600101906020018083116120c457829003601f168201915b505050505081525050905060405180610160016040528082600001518152602001826020015181526020018260400151815260200182606001518152602001826080015181526020018260a0015181526020018260c00151600181111561214b5761214a61387f565b5b81526020018260e0015181526020018261010001518152602001826101200151815260200182610140015181525093505050506121cd565b508080600101915050611afa565b506040517f08c379a00000000000000000000000000000000000000000000000000000000081526004016121c4906148e4565b60405180910390fd5b919050565b6060600060038054905067ffffffffffffffff8111156121f5576121f4613a49565b5b60405190808252806020026020018201604052801561222e57816020015b61221b613614565b8152602001906001900390816122135790505b50905060005b6003805490508110156128a857600060038281548110612257576122566142fa565b5b90600052602060002001549050600060026000838152602001908152602001600020604051806101600160405290816000820154815260200160018201805461229f9061425d565b80601f01602080910402602001604051908101604052809291908181526020018280546122cb9061425d565b80156123185780601f106122ed57610100808354040283529160200191612318565b820191906000526020600020905b8154815290600101906020018083116122fb57829003601f168201915b505050505081526020016002820180546123319061425d565b80601f016020809104026020016040519081016040528092919081815260200182805461235d9061425d565b80156123aa5780601f1061237f576101008083540402835291602001916123aa565b820191906000526020600020905b81548152906001019060200180831161238d57829003601f168201915b505050505081526020016003820180546123c39061425d565b80601f01602080910402602001604051908101604052809291908181526020018280546123ef9061425d565b801561243c5780601f106124115761010080835404028352916020019161243c565b820191906000526020600020905b81548152906001019060200180831161241f57829003601f168201915b505050505081526020016004820180546124559061425d565b80601f01602080910402602001604051908101604052809291908181526020018280546124819061425d565b80156124ce5780601f106124a3576101008083540402835291602001916124ce565b820191906000526020600020905b8154815290600101906020018083116124b157829003601f168201915b505050505081526020016005820180546124e79061425d565b80601f01602080910402602001604051908101604052809291908181526020018280546125139061425d565b80156125605780601f1061253557610100808354040283529160200191612560565b820191906000526020600020905b81548152906001019060200180831161254357829003601f168201915b505050505081526020016006820160009054906101000a900460ff16600181111561258e5761258d61387f565b5b60018111156125a05761259f61387f565b5b81526020016007820180546125b49061425d565b80601f01602080910402602001604051908101604052809291908181526020018280546125e09061425d565b801561262d5780601f106126025761010080835404028352916020019161262d565b820191906000526020600020905b81548152906001019060200180831161261057829003601f168201915b505050505081526020016008820180546126469061425d565b80601f01602080910402602001604051908101604052809291908181526020018280546126729061425d565b80156126bf5780601f10612694576101008083540402835291602001916126bf565b820191906000526020600020905b8154815290600101906020018083116126a257829003601f168201915b505050505081526020016009820180546126d89061425d565b80601f01602080910402602001604051908101604052809291908181526020018280546127049061425d565b80156127515780601f1061272657610100808354040283529160200191612751565b820191906000526020600020905b81548152906001019060200180831161273457829003601f168201915b50505050508152602001600a8201805461276a9061425d565b80601f01602080910402602001604051908101604052809291908181526020018280546127969061425d565b80156127e35780601f106127b8576101008083540402835291602001916127e3565b820191906000526020600020905b8154815290600101906020018083116127c657829003601f168201915b505050505081525050905060405180610160016040528082600001518152602001826020015181526020018260400151815260200182606001518152602001826080015181526020018260a0015181526020018260c00151600181111561284d5761284c61387f565b5b81526020018260e0015181526020018261010001518152602001826101200151815260200182610140015181525084848151811061288e5761288d6142fa565b5b602002602001018190525050508080600101915050612234565b508091505090565b60015481565b60606000805b600380549050811015612edc57600060026000600384815481106128e3576128e26142fa565b5b9060005260206000200154815260200190815260200160002060405180610160016040529081600082015481526020016001820180546129229061425d565b80601f016020809104026020016040519081016040528092919081815260200182805461294e9061425d565b801561299b5780601f106129705761010080835404028352916020019161299b565b820191906000526020600020905b81548152906001019060200180831161297e57829003601f168201915b505050505081526020016002820180546129b49061425d565b80601f01602080910402602001604051908101604052809291908181526020018280546129e09061425d565b8015612a2d5780601f10612a0257610100808354040283529160200191612a2d565b820191906000526020600020905b815481529060010190602001808311612a1057829003601f168201915b50505050508152602001600382018054612a469061425d565b80601f0160208091040260200160405190810160405280929190818152602001828054612a729061425d565b8015612abf5780601f10612a9457610100808354040283529160200191612abf565b820191906000526020600020905b815481529060010190602001808311612aa257829003601f168201915b50505050508152602001600482018054612ad89061425d565b80601f0160208091040260200160405190810160405280929190818152602001828054612b049061425d565b8015612b515780601f10612b2657610100808354040283529160200191612b51565b820191906000526020600020905b815481529060010190602001808311612b3457829003601f168201915b50505050508152602001600582018054612b6a9061425d565b80601f0160208091040260200160405190810160405280929190818152602001828054612b969061425d565b8015612be35780601f10612bb857610100808354040283529160200191612be3565b820191906000526020600020905b815481529060010190602001808311612bc657829003601f168201915b505050505081526020016006820160009054906101000a900460ff166001811115612c1157612c1061387f565b5b6001811115612c2357612c2261387f565b5b8152602001600782018054612c379061425d565b80601f0160208091040260200160405190810160405280929190818152602001828054612c639061425d565b8015612cb05780601f10612c8557610100808354040283529160200191612cb0565b820191906000526020600020905b815481529060010190602001808311612c9357829003601f168201915b50505050508152602001600882018054612cc99061425d565b80601f0160208091040260200160405190810160405280929190818152602001828054612cf59061425d565b8015612d425780601f10612d1757610100808354040283529160200191612d42565b820191906000526020600020905b815481529060010190602001808311612d2557829003601f168201915b50505050508152602001600982018054612d5b9061425d565b80601f0160208091040260200160405190810160405280929190818152602001828054612d879061425d565b8015612dd45780601f10612da957610100808354040283529160200191612dd4565b820191906000526020600020905b815481529060010190602001808311612db757829003601f168201915b50505050508152602001600a82018054612ded9061425d565b80601f0160208091040260200160405190810160405280929190818152602001828054612e199061425d565b8015612e665780601f10612e3b57610100808354040283529160200191612e66565b820191906000526020600020905b815481529060010190602001808311612e4957829003601f168201915b5050505050815250509050600180811115612e8457612e8361387f565b5b8160c001516001811115612e9b57612e9a61387f565b5b148015612eba5750848051906020012081610140015180519060200120145b15612ece578280612eca90614850565b9350505b5080806001019150506128bc565b5060008167ffffffffffffffff811115612ef957612ef8613a49565b5b604051908082528060200260200182016040528015612f3257816020015b612f1f613614565b815260200190600190039081612f175790505b5090506000805b60038054905081101561360857600060038281548110612f5c57612f5b6142fa565b5b906000526020600020015490506000600260008381526020019081526020016000206040518061016001604052908160008201548152602001600182018054612fa49061425d565b80601f0160208091040260200160405190810160405280929190818152602001828054612fd09061425d565b801561301d5780601f10612ff25761010080835404028352916020019161301d565b820191906000526020600020905b81548152906001019060200180831161300057829003601f168201915b505050505081526020016002820180546130369061425d565b80601f01602080910402602001604051908101604052809291908181526020018280546130629061425d565b80156130af5780601f10613084576101008083540402835291602001916130af565b820191906000526020600020905b81548152906001019060200180831161309257829003601f168201915b505050505081526020016003820180546130c89061425d565b80601f01602080910402602001604051908101604052809291908181526020018280546130f49061425d565b80156131415780601f1061311657610100808354040283529160200191613141565b820191906000526020600020905b81548152906001019060200180831161312457829003601f168201915b5050505050815260200160048201805461315a9061425d565b80601f01602080910402602001604051908101604052809291908181526020018280546131869061425d565b80156131d35780601f106131a8576101008083540402835291602001916131d3565b820191906000526020600020905b8154815290600101906020018083116131b657829003601f168201915b505050505081526020016005820180546131ec9061425d565b80601f01602080910402602001604051908101604052809291908181526020018280546132189061425d565b80156132655780601f1061323a57610100808354040283529160200191613265565b820191906000526020600020905b81548152906001019060200180831161324857829003601f168201915b505050505081526020016006820160009054906101000a900460ff1660018111156132935761329261387f565b5b60018111156132a5576132a461387f565b5b81526020016007820180546132b99061425d565b80601f01602080910402602001604051908101604052809291908181526020018280546132e59061425d565b80156133325780601f1061330757610100808354040283529160200191613332565b820191906000526020600020905b81548152906001019060200180831161331557829003601f168201915b5050505050815260200160088201805461334b9061425d565b80601f01602080910402602001604051908101604052809291908181526020018280546133779061425d565b80156133c45780601f10613399576101008083540402835291602001916133c4565b820191906000526020600020905b8154815290600101906020018083116133a757829003601f168201915b505050505081526020016009820180546133dd9061425d565b80601f01602080910402602001604051908101604052809291908181526020018280546134099061425d565b80156134565780601f1061342b57610100808354040283529160200191613456565b820191906000526020600020905b81548152906001019060200180831161343957829003601f168201915b50505050508152602001600a8201805461346f9061425d565b80601f016020809104026020016040519081016040528092919081815260200182805461349b9061425d565b80156134e85780601f106134bd576101008083540402835291602001916134e8565b820191906000526020600020905b8154815290600101906020018083116134cb57829003601f168201915b50505050508152505090506001808111156135065761350561387f565b5b8160c00151600181111561351d5761351c61387f565b5b14801561353c5750878051906020012081610140015180519060200120145b156135f95760405180610160016040528082600001518152602001826020015181526020018260400151815260200182606001518152602001826080015181526020018260a0015181526020018260c0015160018111156135a05761359f61387f565b5b81526020018260e001518152602001826101000151815260200182610120015181526020018261014001518152508585806135da90614850565b9650815181106135ed576135ec6142fa565b5b60200260200101819052505b50508080600101915050612f39565b50819350505050919050565b6040518061016001604052806000815260200160608152602001606081526020016060815260200160608152602001606081526020016000600181111561365e5761365d61387f565b5b8152602001606081526020016060815260200160608152602001606081525090565b600082825260208201905092915050565b7f4e6f204574686572206163636570746564000000000000000000000000000000600082015250565b60006136c7601183613680565b91506136d282613691565b602082019050919050565b600060208201905081810360008301526136f6816136ba565b9050919050565b7f46616c6c6261636b2063616c6c2072656a656374656400000000000000000000600082015250565b6000613733601683613680565b915061373e826136fd565b602082019050919050565b6000602082019050818103600083015261376281613726565b9050919050565b6000604051905090565b600080fd5b600080fd5b6000819050919050565b6137908161377d565b811461379b57600080fd5b50565b6000813590506137ad81613787565b92915050565b6000602082840312156137c9576137c8613773565b5b60006137d78482850161379e565b91505092915050565b6137e98161377d565b82525050565b600081519050919050565b600082825260208201905092915050565b60005b8381101561382957808201518184015260208101905061380e565b60008484015250505050565b6000601f19601f8301169050919050565b6000613851826137ef565b61385b81856137fa565b935061386b81856020860161380b565b61387481613835565b840191505092915050565b7f4e487b7100000000000000000000000000000000000000000000000000000000600052602160045260246000fd5b600281106138bf576138be61387f565b5b50565b60008190506138d0826138ae565b919050565b60006138e0826138c2565b9050919050565b6138f0816138d5565b82525050565b60006101608301600083015161390f60008601826137e0565b50602083015184820360208601526139278282613846565b915050604083015184820360408601526139418282613846565b9150506060830151848203606086015261395b8282613846565b915050608083015184820360808601526139758282613846565b91505060a083015184820360a086015261398f8282613846565b91505060c08301516139a460c08601826138e7565b5060e083015184820360e08601526139bc8282613846565b9150506101008301518482036101008601526139d88282613846565b9150506101208301518482036101208601526139f48282613846565b915050610140830151848203610140860152613a108282613846565b9150508091505092915050565b60006020820190508181036000830152613a3781846138f6565b905092915050565b600080fd5b600080fd5b7f4e487b7100000000000000000000000000000000000000000000000000000000600052604160045260246000fd5b613a8182613835565b810181811067ffffffffffffffff82111715613aa057613a9f613a49565b5b80604052505050565b6000613ab3613769565b9050613abf8282613a78565b919050565b600067ffffffffffffffff821115613adf57613ade613a49565b5b613ae882613835565b9050602081019050919050565b82818337600083830152505050565b6000613b17613b1284613ac4565b613aa9565b905082815260208101848484011115613b3357613b32613a44565b5b613b3e848285613af5565b509392505050565b600082601f830112613b5b57613b5a613a3f565b5b8135613b6b848260208601613b04565b91505092915050565b60028110613b8157600080fd5b50565b600081359050613b9381613b74565b92915050565b60008060008060008060008060008060006101608c8e031215613bbf57613bbe613773565b5b6000613bcd8e828f0161379e565b9b505060208c013567ffffffffffffffff811115613bee57613bed613778565b5b613bfa8e828f01613b46565b9a505060408c013567ffffffffffffffff811115613c1b57613c1a613778565b5b613c278e828f01613b46565b99505060608c013567ffffffffffffffff811115613c4857613c47613778565b5b613c548e828f01613b46565b98505060808c013567ffffffffffffffff811115613c7557613c74613778565b5b613c818e828f01613b46565b97505060a08c013567ffffffffffffffff811115613ca257613ca1613778565b5b613cae8e828f01613b46565b96505060c0613cbf8e828f01613b84565b95505060e08c013567ffffffffffffffff811115613ce057613cdf613778565b5b613cec8e828f01613b46565b9450506101008c013567ffffffffffffffff811115613d0e57613d0d613778565b5b613d1a8e828f01613b46565b9350506101208c013567ffffffffffffffff811115613d3c57613d3b613778565b5b613d488e828f01613b46565b9250506101408c013567ffffffffffffffff811115613d6a57613d69613778565b5b613d768e828f01613b46565b9150509295989b509295989b9093969950565b600060208284031215613d9f57613d9e613773565b5b6000613dad84828501613b84565b91505092915050565b600081519050919050565b600082825260208201905092915050565b6000819050602082019050919050565b600061016083016000830151613dfb60008601826137e0565b5060208301518482036020860152613e138282613846565b91505060408301518482036040860152613e2d8282613846565b91505060608301518482036060860152613e478282613846565b91505060808301518482036080860152613e618282613846565b91505060a083015184820360a0860152613e7b8282613846565b91505060c0830151613e9060c08601826138e7565b5060e083015184820360e0860152613ea88282613846565b915050610100830151848203610100860152613ec48282613846565b915050610120830151848203610120860152613ee08282613846565b915050610140830151848203610140860152613efc8282613846565b9150508091505092915050565b6000613f158383613de2565b905092915050565b6000602082019050919050565b6000613f3582613db6565b613f3f8185613dc1565b935083602082028501613f5185613dd2565b8060005b85811015613f8d5784840389528151613f6e8582613f09565b9450613f7983613f1d565b925060208a01995050600181019050613f55565b50829750879550505050505092915050565b60006020820190508181036000830152613fb98184613f2a565b905092915050565b613fca8161377d565b82525050565b6000602082019050613fe56000830184613fc1565b92915050565b6000613ff6826137ef565b6140008185613680565b935061401081856020860161380b565b61401981613835565b840191505092915050565b61402d816138d5565b82525050565b600061016082019050614049600083018e613fc1565b818103602083015261405b818d613feb565b9050818103604083015261406f818c613feb565b90508181036060830152614083818b613feb565b90508181036080830152614097818a613feb565b905081810360a08301526140ab8189613feb565b90506140ba60c0830188614024565b81810360e08301526140cc8187613feb565b90508181036101008301526140e18186613feb565b90508181036101208301526140f68185613feb565b905081810361014083015261410b8184613feb565b90509c9b505050505050505050505050565b600073ffffffffffffffffffffffffffffffffffffffff82169050919050565b60006141488261411d565b9050919050565b6141588161413d565b82525050565b6000602082019050614173600083018461414f565b92915050565b60006020828403121561418f5761418e613773565b5b600082013567ffffffffffffffff8111156141ad576141ac613778565b5b6141b984828501613b46565b91505092915050565b7f496e76616c696420706172747920494400000000000000000000000000000000600082015250565b60006141f8601083613680565b9150614203826141c2565b602082019050919050565b60006020820190508181036000830152614227816141eb565b9050919050565b7f4e487b7100000000000000000000000000000000000000000000000000000000600052602260045260246000fd5b6000600282049050600182168061427557607f821691505b6020821081036142885761428761422e565b5b50919050565b7f4e6f7420617574686f72697a6564000000000000000000000000000000000000600082015250565b60006142c4600e83613680565b91506142cf8261428e565b602082019050919050565b600060208201905081810360008301526142f3816142b7565b9050919050565b7f4e487b7100000000000000000000000000000000000000000000000000000000600052603260045260246000fd5b600081905092915050565b60008190508160005260206000209050919050565b600081546143568161425d565b6143608186614329565b9450600182166000811461437b5760018114614390576143c3565b60ff19831686528115158202860193506143c3565b61439985614334565b60005b838110156143bb5781548189015260018201915060208101905061439c565b838801955050505b50505092915050565b60006143d88284614349565b915081905092915050565b7f506172747920616262726576696174696f6e20616c726561647920657869737460008201527f7300000000000000000000000000000000000000000000000000000000000000602082015250565b600061443f602183613680565b915061444a826143e3565b604082019050919050565b6000602082019050818103600083015261446e81614432565b9050919050565b7f4e6174696f6e616c207061727479206d757374206e6f7420696e636c7564652060008201527f7374617465000000000000000000000000000000000000000000000000000000602082015250565b60006144d1602583613680565b91506144dc82614475565b604082019050919050565b60006020820190508181036000830152614500816144c4565b9050919050565b7f5374617465207061727479206d75737420696e636c7564652061207374617465600082015250565b600061453d602083613680565b915061454882614507565b602082019050919050565b6000602082019050818103600083015261456c81614530565b9050919050565b60008190508160005260206000209050919050565b60006020601f8301049050919050565b600082821b905092915050565b6000600883026145d57fffffffffffffffffffffffffffffffffffffffffffffffffffffffffffffffff82614598565b6145df8683614598565b95508019841693508086168417925050509392505050565b6000819050919050565b600061461c6146176146128461377d565b6145f7565b61377d565b9050919050565b6000819050919050565b61463683614601565b61464a61464282614623565b8484546145a5565b825550505050565b600090565b61465f614652565b61466a81848461462d565b505050565b5b8181101561468e57614683600082614657565b600181019050614670565b5050565b601f8211156146d3576146a481614573565b6146ad84614588565b810160208510156146bc578190505b6146d06146c885614588565b83018261466f565b50505b505050565b600082821c905092915050565b60006146f6600019846008026146d8565b1980831691505092915050565b600061470f83836146e5565b9150826002028217905092915050565b614728826137ef565b67ffffffffffffffff81111561474157614740613a49565b5b61474b825461425d565b614756828285614692565b600060209050601f8311600181146147895760008415614777578287015190505b6147818582614703565b8655506147e9565b601f19841661479786614573565b60005b828110156147bf5784890151825560018201915060208501945060208101905061479a565b868310156147dc57848901516147d8601f8916826146e5565b8355505b6001600288020188555050505b505050505050565b6000604082019050818103600083015261480b8185613feb565b905061481a6020830184614024565b9392505050565b7f4e487b7100000000000000000000000000000000000000000000000000000000600052601160045260246000fd5b600061485b8261377d565b91507fffffffffffffffffffffffffffffffffffffffffffffffffffffffffffffffff820361488d5761488c614821565b5b600182019050919050565b7f5061727479206e6f7420666f756e64206279206e616d65000000000000000000600082015250565b60006148ce601783613680565b91506148d982614898565b602082019050919050565b600060208201905081810360008301526148fd816148c1565b905091905056fea264697066735822122035006bdcb03a0bdc5f0c3e045f0a96a0a55742f1c6057c4bd63537d3499f4c4664736f6c634300081c0033",
  "linkReferences": {},
  "deployedLinkReferences": {}
}